{
  "contractName": "ItemManager",
  "abi": [
    {
      "anonymous": false,
      "inputs": [
        {
          "indexed": true,
          "internalType": "uint256",
          "name": "_itemIndex",
          "type": "uint256"
        },
        {
          "indexed": false,
          "internalType": "uint256",
          "name": "_step",
          "type": "uint256"
        },
        {
          "indexed": false,
          "internalType": "address",
          "name": "_itemAddress",
          "type": "address"
        }
      ],
      "name": "SupplyChainStep",
      "type": "event"
    },
    {
      "inputs": [],
      "name": "_owner",
      "outputs": [
        {
          "internalType": "address payable",
          "name": "",
          "type": "address"
        }
      ],
      "stateMutability": "view",
      "type": "function",
      "constant": true
    },
    {
      "inputs": [],
      "name": "isOwner",
      "outputs": [
        {
          "internalType": "bool",
          "name": "",
          "type": "bool"
        }
      ],
      "stateMutability": "view",
      "type": "function",
      "constant": true
    },
    {
      "inputs": [
        {
          "internalType": "uint256",
          "name": "",
          "type": "uint256"
        }
      ],
      "name": "items",
      "outputs": [
        {
          "internalType": "contract Item",
          "name": "_item",
          "type": "address"
        },
        {
          "internalType": "string",
          "name": "_identifier",
          "type": "string"
        },
        {
          "internalType": "uint256",
          "name": "_itemPrice",
          "type": "uint256"
        },
        {
          "internalType": "enum ItemManager.SupplyChainState",
          "name": "_state",
          "type": "uint8"
        },
        {
          "internalType": "uint256",
          "name": "_rating",
          "type": "uint256"
        },
        {
          "internalType": "address",
          "name": "_reviewer",
          "type": "address"
        }
      ],
      "stateMutability": "view",
      "type": "function",
      "constant": true
    },
    {
      "inputs": [
        {
          "internalType": "string",
          "name": "_identifier",
          "type": "string"
        },
        {
          "internalType": "uint256",
          "name": "_itemPrice",
          "type": "uint256"
        }
      ],
      "name": "createItem",
      "outputs": [],
      "stateMutability": "nonpayable",
      "type": "function"
    },
    {
      "inputs": [
        {
          "internalType": "uint256",
          "name": "_itemIndex",
          "type": "uint256"
        }
      ],
      "name": "triggerPayment",
      "outputs": [],
      "stateMutability": "payable",
      "type": "function",
      "payable": true
    },
    {
      "inputs": [
        {
          "internalType": "uint256",
          "name": "_itemIndex",
          "type": "uint256"
        }
      ],
      "name": "triggerDelivery",
      "outputs": [],
      "stateMutability": "nonpayable",
      "type": "function"
    },
    {
      "inputs": [
        {
          "internalType": "uint256",
          "name": "_itemIndex",
          "type": "uint256"
        },
        {
          "internalType": "uint256",
          "name": "_rating",
          "type": "uint256"
        }
      ],
      "name": "rateItem",
      "outputs": [],
      "stateMutability": "nonpayable",
      "type": "function"
    },
    {
      "inputs": [
        {
          "internalType": "uint256",
          "name": "_itemIndex",
          "type": "uint256"
        }
      ],
      "name": "getRating",
      "outputs": [
        {
          "internalType": "uint256",
          "name": "",
          "type": "uint256"
        }
      ],
      "stateMutability": "view",
      "type": "function",
      "constant": true
    }
  ],
  "bytecode": "0x608060405234801561001057600080fd5b50336000806101000a81548173ffffffffffffffffffffffffffffffffffffffff021916908373ffffffffffffffffffffffffffffffffffffffff160217905550611f09806100606000396000f3fe608060405260043610620000865760003560e01c8063b0ee0e9f1162000055578063b0ee0e9f1462000137578063b2bdfa7b146200017b578063bfb231d214620001ab578063cd31831e14620001f45762000086565b806360beec23146200008b578063800fb83f14620000b95780638c55174214620000d95780638f32d59b1462000107575b600080fd5b3480156200009857600080fd5b50620000b76004803603810190620000b1919062000b12565b62000222565b005b620000d76004803603810190620000d1919062000b59565b620003e9565b005b348015620000e657600080fd5b50620001056004803603810190620000ff919062000ced565b620005c5565b005b3480156200011457600080fd5b506200011f6200077f565b6040516200012e919062000d70565b60405180910390f35b3480156200014457600080fd5b506200016360048036038101906200015d919062000b59565b620007d6565b60405162000172919062000d9e565b60405180910390f35b3480156200018857600080fd5b5062000193620007f6565b604051620001a2919062000e00565b60405180910390f35b348015620001b857600080fd5b50620001d76004803603810190620001d1919062000b59565b6200081a565b604051620001eb9695949392919062000fb6565b60405180910390f35b3480156200020157600080fd5b506200022060048036038101906200021a919062000b59565b62000933565b005b60006001600084815260200190815260200160002090506002808111156200024f576200024e62000f11565b5b8160030160009054906101000a900460ff16600281111562000276576200027562000f11565b5b14620002b9576040517f08c379a0000000000000000000000000000000000000000000000000000000008152600401620002b0906200107a565b60405180910390fd5b8060050160009054906101000a900473ffffffffffffffffffffffffffffffffffffffff1673ffffffffffffffffffffffffffffffffffffffff163373ffffffffffffffffffffffffffffffffffffffff16146200034e576040517f08c379a00000000000000000000000000000000000000000000000000000000081526004016200034590620010ec565b60405180910390fd5b600081600401541462000398576040517f08c379a00000000000000000000000000000000000000000000000000000000081526004016200038f906200115e565b60405180910390fd5b818160040181905550338160050160006101000a81548173ffffffffffffffffffffffffffffffffffffffff021916908373ffffffffffffffffffffffffffffffffffffffff160217905550505050565b3460016000838152602001908152602001600020600201541462000444576040517f08c379a00000000000000000000000000000000000000000000000000000000081526004016200043b90620011d0565b60405180910390fd5b600060028111156200045b576200045a62000f11565b5b6001600083815260200190815260200160002060030160009054906101000a900460ff16600281111562000494576200049362000f11565b5b14620004d7576040517f08c379a0000000000000000000000000000000000000000000000000000000008152600401620004ce9062001242565b60405180910390fd5b600180600083815260200190815260200160002060030160006101000a81548160ff0219169083600281111562000513576200051262000f11565b5b0217905550807fa4035636e99f06b7651a604c1019fa4e8779fe68ef27eeb74dff2de348f6199b6001600084815260200190815260200160002060030160009054906101000a900460ff16600281111562000573576200057262000f11565b5b6001600085815260200190815260200160002060000160009054906101000a900473ffffffffffffffffffffffffffffffffffffffff16604051620005ba92919062001264565b60405180910390a250565b60003082600254604051620005da9062000ab5565b620005e893929190620012ca565b604051809103906000f08015801562000605573d6000803e3d6000fd5b5090508060016000600254815260200190815260200160002060000160006101000a81548173ffffffffffffffffffffffffffffffffffffffff021916908373ffffffffffffffffffffffffffffffffffffffff16021790555082600160006002548152602001908152602001600020600101908162000686919062001533565b508160016000600254815260200190815260200160002060020181905550600060016000600254815260200190815260200160002060030160006101000a81548160ff02191690836002811115620006e357620006e262000f11565b5b02179055506002547fa4035636e99f06b7651a604c1019fa4e8779fe68ef27eeb74dff2de348f6199b60016000600254815260200190815260200160002060030160009054906101000a900460ff16600281111562000747576200074662000f11565b5b836040516200075892919062001264565b60405180910390a260026000815480929190620007759062001649565b9190505550505050565b60008060009054906101000a900473ffffffffffffffffffffffffffffffffffffffff1673ffffffffffffffffffffffffffffffffffffffff163373ffffffffffffffffffffffffffffffffffffffff1614905090565b600060016000838152602001908152602001600020600401549050919050565b60008054906101000a900473ffffffffffffffffffffffffffffffffffffffff1681565b60016020528060005260406000206000915090508060000160009054906101000a900473ffffffffffffffffffffffffffffffffffffffff1690806001018054620008659062001336565b80601f0160208091040260200160405190810160405280929190818152602001828054620008939062001336565b8015620008e45780601f10620008b857610100808354040283529160200191620008e4565b820191906000526020600020905b815481529060010190602001808311620008c657829003601f168201915b5050505050908060020154908060030160009054906101000a900460ff16908060040154908060050160009054906101000a900473ffffffffffffffffffffffffffffffffffffffff16905086565b600160028111156200094a576200094962000f11565b5b6001600083815260200190815260200160002060030160009054906101000a900460ff16600281111562000983576200098262000f11565b5b14620009c6576040517f08c379a0000000000000000000000000000000000000000000000000000000008152600401620009bd9062001242565b60405180910390fd5b60026001600083815260200190815260200160002060030160006101000a81548160ff0219169083600281111562000a035762000a0262000f11565b5b0217905550807fa4035636e99f06b7651a604c1019fa4e8779fe68ef27eeb74dff2de348f6199b6001600084815260200190815260200160002060030160009054906101000a900460ff16600281111562000a635762000a6262000f11565b5b6001600085815260200190815260200160002060000160009054906101000a900473ffffffffffffffffffffffffffffffffffffffff1660405162000aaa92919062001264565b60405180910390a250565b61083d806200169783390190565b6000604051905090565b600080fd5b600080fd5b6000819050919050565b62000aec8162000ad7565b811462000af857600080fd5b50565b60008135905062000b0c8162000ae1565b92915050565b6000806040838503121562000b2c5762000b2b62000acd565b5b600062000b3c8582860162000afb565b925050602062000b4f8582860162000afb565b9150509250929050565b60006020828403121562000b725762000b7162000acd565b5b600062000b828482850162000afb565b91505092915050565b600080fd5b600080fd5b6000601f19601f8301169050919050565b7f4e487b7100000000000000000000000000000000000000000000000000000000600052604160045260246000fd5b62000be08262000b95565b810181811067ffffffffffffffff8211171562000c025762000c0162000ba6565b5b80604052505050565b600062000c1762000ac3565b905062000c25828262000bd5565b919050565b600067ffffffffffffffff82111562000c485762000c4762000ba6565b5b62000c538262000b95565b9050602081019050919050565b82818337600083830152505050565b600062000c8662000c808462000c2a565b62000c0b565b90508281526020810184848401111562000ca55762000ca462000b90565b5b62000cb284828562000c60565b509392505050565b600082601f83011262000cd25762000cd162000b8b565b5b813562000ce484826020860162000c6f565b91505092915050565b6000806040838503121562000d075762000d0662000acd565b5b600083013567ffffffffffffffff81111562000d285762000d2762000ad2565b5b62000d368582860162000cba565b925050602062000d498582860162000afb565b9150509250929050565b60008115159050919050565b62000d6a8162000d53565b82525050565b600060208201905062000d87600083018462000d5f565b92915050565b62000d988162000ad7565b82525050565b600060208201905062000db5600083018462000d8d565b92915050565b600073ffffffffffffffffffffffffffffffffffffffff82169050919050565b600062000de88262000dbb565b9050919050565b62000dfa8162000ddb565b82525050565b600060208201905062000e17600083018462000def565b92915050565b6000819050919050565b600062000e4862000e4262000e3c8462000dbb565b62000e1d565b62000dbb565b9050919050565b600062000e5c8262000e27565b9050919050565b600062000e708262000e4f565b9050919050565b62000e828162000e63565b82525050565b600081519050919050565b600082825260208201905092915050565b60005b8381101562000ec457808201518184015260208101905062000ea7565b60008484015250505050565b600062000edd8262000e88565b62000ee9818562000e93565b935062000efb81856020860162000ea4565b62000f068162000b95565b840191505092915050565b7f4e487b7100000000000000000000000000000000000000000000000000000000600052602160045260246000fd5b6003811062000f545762000f5362000f11565b5b50565b600081905062000f678262000f40565b919050565b600062000f798262000f57565b9050919050565b62000f8b8162000f6c565b82525050565b600062000f9e8262000dbb565b9050919050565b62000fb08162000f91565b82525050565b600060c08201905062000fcd600083018962000e77565b818103602083015262000fe1818862000ed0565b905062000ff2604083018762000d8d565b62001001606083018662000f80565b62001010608083018562000d8d565b6200101f60a083018462000fa5565b979650505050505050565b7f4974656d206d7573742062652064656c69766572656420746f20726174650000600082015250565b600062001062601e8362000e93565b91506200106f826200102a565b602082019050919050565b60006020820190508181036000830152620010958162001053565b9050919050565b7f4f6e6c79207468652062757965722063616e207261746520746865206974656d600082015250565b6000620010d460208362000e93565b9150620010e1826200109c565b602082019050919050565b600060208201905081810360008301526200110781620010c5565b9050919050565b7f4974656d2068617320616c7265616479206265656e2072617465640000000000600082015250565b600062001146601b8362000e93565b915062001153826200110e565b602082019050919050565b60006020820190508181036000830152620011798162001137565b9050919050565b7f4f6e6c792066756c6c207061796d656e74732061636365707465642100000000600082015250565b6000620011b8601c8362000e93565b9150620011c58262001180565b602082019050919050565b60006020820190508181036000830152620011eb81620011a9565b9050919050565b7f4974656d206973206675727468657220696e2074686520636861696e21000000600082015250565b60006200122a601d8362000e93565b91506200123782620011f2565b602082019050919050565b600060208201905081810360008301526200125d816200121b565b9050919050565b60006040820190506200127b600083018562000d8d565b6200128a602083018462000fa5565b9392505050565b60006200129e8262000e27565b9050919050565b6000620012b28262001291565b9050919050565b620012c481620012a5565b82525050565b6000606082019050620012e16000830186620012b9565b620012f0602083018562000d8d565b620012ff604083018462000d8d565b949350505050565b7f4e487b7100000000000000000000000000000000000000000000000000000000600052602260045260246000fd5b600060028204905060018216806200134f57607f821691505b60208210810362001365576200136462001307565b5b50919050565b60008190508160005260206000209050919050565b60006020601f8301049050919050565b600082821b905092915050565b600060088302620013cf7fffffffffffffffffffffffffffffffffffffffffffffffffffffffffffffffff8262001390565b620013db868362001390565b95508019841693508086168417925050509392505050565b6000620014146200140e620014088462000ad7565b62000e1d565b62000ad7565b9050919050565b6000819050919050565b6200143083620013f3565b620014486200143f826200141b565b8484546200139d565b825550505050565b600090565b6200145f62001450565b6200146c81848462001425565b505050565b5b8181101562001494576200148860008262001455565b60018101905062001472565b5050565b601f821115620014e357620014ad816200136b565b620014b88462001380565b81016020851015620014c8578190505b620014e0620014d78562001380565b83018262001471565b50505b505050565b600082821c905092915050565b60006200150860001984600802620014e8565b1980831691505092915050565b6000620015238383620014f5565b9150826002028217905092915050565b6200153e8262000e88565b67ffffffffffffffff8111156200155a576200155962000ba6565b5b62001566825462001336565b6200157382828562001498565b600060209050601f831160018114620015ab576000841562001596578287015190505b620015a2858262001515565b86555062001612565b601f198416620015bb866200136b565b60005b82811015620015e557848901518255600182019150602085019450602081019050620015be565b8683101562001605578489015162001601601f891682620014f5565b8355505b6001600288020188555050505b505050505050565b7f4e487b7100000000000000000000000000000000000000000000000000000000600052601160045260246000fd5b6000620016568262000ad7565b91507fffffffffffffffffffffffffffffffffffffffffffffffffffffffffffffffff82036200168b576200168a6200161a565b5b60018201905091905056fe608060405234801561001057600080fd5b5060405161083d38038061083d83398181016040528101906100329190610134565b816000819055508060028190555082600360006101000a81548173ffffffffffffffffffffffffffffffffffffffff021916908373ffffffffffffffffffffffffffffffffffffffff160217905550505050610187565b600080fd5b600073ffffffffffffffffffffffffffffffffffffffff82169050919050565b60006100b98261008e565b9050919050565b60006100cb826100ae565b9050919050565b6100db816100c0565b81146100e657600080fd5b50565b6000815190506100f8816100d2565b92915050565b6000819050919050565b610111816100fe565b811461011c57600080fd5b50565b60008151905061012e81610108565b92915050565b60008060006060848603121561014d5761014c610089565b5b600061015b868287016100e9565b935050602061016c8682870161011f565b925050604061017d8682870161011f565b9150509250925092565b6106a7806101966000396000f3fe6080604052600436106100435760003560e01c8063230b9da3146102595780632986c0e5146102845780633c8da588146102af57806389794d00146102da5761024b565b3661024b5760006001541461008d576040517f08c379a00000000000000000000000000000000000000000000000000000000081526004016100849061039a565b60405180910390fd5b34600054146100d1576040517f08c379a00000000000000000000000000000000000000000000000000000000081526004016100c890610406565b60405180910390fd5b34600160008282546100e3919061045f565b925050819055506000600360009054906101000a900473ffffffffffffffffffffffffffffffffffffffff1673ffffffffffffffffffffffffffffffffffffffff163460025460405160240161013991906104a2565b6040516020818303038152906040527f800fb83f000000000000000000000000000000000000000000000000000000007bffffffffffffffffffffffffffffffffffffffffffffffffffffffff19166020820180517bffffffffffffffffffffffffffffffffffffffffffffffffffffffff83818316178352505050506040516101c3919061052e565b60006040518083038185875af1925050503d8060008114610200576040519150601f19603f3d011682016040523d82523d6000602084013e610205565b606091505b5050905080610249576040517f08c379a0000000000000000000000000000000000000000000000000000000008152600401610240906105b7565b60405180910390fd5b005b34801561025757600080fd5b005b34801561026557600080fd5b5061026e610305565b60405161027b9190610656565b60405180910390f35b34801561029057600080fd5b5061029961032b565b6040516102a691906104a2565b60405180910390f35b3480156102bb57600080fd5b506102c4610331565b6040516102d191906104a2565b60405180910390f35b3480156102e657600080fd5b506102ef610337565b6040516102fc91906104a2565b60405180910390f35b600360009054906101000a900473ffffffffffffffffffffffffffffffffffffffff1681565b60025481565b60005481565b60015481565b600082825260208201905092915050565b7f4974656d206973207061696420616c7265616479210000000000000000000000600082015250565b600061038460158361033d565b915061038f8261034e565b602082019050919050565b600060208201905081810360008301526103b381610377565b9050919050565b7f4f6e6c792066756c6c207061796d656e747320616c6c6f776564000000000000600082015250565b60006103f0601a8361033d565b91506103fb826103ba565b602082019050919050565b6000602082019050818103600083015261041f816103e3565b9050919050565b6000819050919050565b7f4e487b7100000000000000000000000000000000000000000000000000000000600052601160045260246000fd5b600061046a82610426565b915061047583610426565b925082820190508082111561048d5761048c610430565b5b92915050565b61049c81610426565b82525050565b60006020820190506104b76000830184610493565b92915050565b600081519050919050565b600081905092915050565b60005b838110156104f15780820151818401526020810190506104d6565b60008484015250505050565b6000610508826104bd565b61051281856104c8565b93506105228185602086016104d3565b80840191505092915050565b600061053a82846104fd565b915081905092915050565b7f546865207472616e73616374696f6e207761736e27742073756363657373667560008201527f6c2c2063616e63656c6c696e6700000000000000000000000000000000000000602082015250565b60006105a1602d8361033d565b91506105ac82610545565b604082019050919050565b600060208201905081810360008301526105d081610594565b9050919050565b600073ffffffffffffffffffffffffffffffffffffffff82169050919050565b6000819050919050565b600061061c610617610612846105d7565b6105f7565b6105d7565b9050919050565b600061062e82610601565b9050919050565b600061064082610623565b9050919050565b61065081610635565b82525050565b600060208201905061066b6000830184610647565b9291505056fea2646970667358221220df676a13a2008ec3cf568bd4b22f3b92fe9c30292dcb6a3aae6e992600cd7ca064736f6c63430008120033a26469706673582212207b62882230fbeb0233bd8b31c68c3d9b858f61849b378e9c28a8f7589daee21364736f6c63430008120033",
  "immutableReferences": {},
  "source": "// SPDX-License-Identifier: MIT\r\npragma solidity ^0.8.18;\r\n\r\nimport \"./Ownable.sol\";\r\nimport \"./Item.sol\";\r\n\r\ncontract ItemManager is Ownable {\r\n    enum SupplyChainState {Created, Paid, Delivered}\r\n\r\n    struct S_Item {\r\n        Item _item;\r\n        string _identifier;\r\n        uint _itemPrice;\r\n        SupplyChainState _state;\r\n        uint _rating; // Thm trng nh gi\r\n        address _reviewer; // a ch ngi nh gi\r\n    }\r\n\r\n    mapping(uint => S_Item) public items;\r\n    uint itemIndex;\r\n\r\n    event SupplyChainStep(uint indexed _itemIndex, uint _step, address _itemAddress);\r\n\r\n    function createItem(string memory _identifier, uint _itemPrice) public {\r\n        Item item = new Item(this, _itemPrice, itemIndex);\r\n        items[itemIndex]._item = item;\r\n        items[itemIndex]._identifier = _identifier;\r\n        items[itemIndex]._itemPrice = _itemPrice;\r\n        items[itemIndex]._state = SupplyChainState.Created;\r\n        emit SupplyChainStep(itemIndex, uint(items[itemIndex]._state), address(item));\r\n        itemIndex++;\r\n    }\r\n\r\n    function triggerPayment(uint _itemIndex) public payable {\r\n        require(items[_itemIndex]._itemPrice == msg.value, \"Only full payments accepted!\");\r\n        require(items[_itemIndex]._state == SupplyChainState.Created, \"Item is further in the chain!\");\r\n        items[_itemIndex]._state = SupplyChainState.Paid;\r\n        emit SupplyChainStep(_itemIndex, uint(items[_itemIndex]._state), address(items[_itemIndex]._item));\r\n    }\r\n\r\n    function triggerDelivery(uint _itemIndex) public {\r\n        require(items[_itemIndex]._state == SupplyChainState.Paid, \"Item is further in the chain!\");\r\n        items[_itemIndex]._state = SupplyChainState.Delivered;\r\n        emit SupplyChainStep(_itemIndex, uint(items[_itemIndex]._state), address(items[_itemIndex]._item));\r\n    }\r\n\r\n    // Hm nh gi sn phm\r\n    function rateItem(uint _itemIndex, uint _rating) public {\r\n        S_Item storage item = items[_itemIndex]; // Ly item\r\n\r\n        require(item._state == SupplyChainState.Delivered, \"Item must be delivered to rate\");\r\n        require(msg.sender == item._reviewer, \"Only the buyer can rate the item\");\r\n        require(item._rating == 0, \"Item has already been rated\"); // m bo ch c nh gi mt ln\r\n\r\n        item._rating = _rating; // Cp nht nh gi\r\n        item._reviewer = msg.sender; // Ghi li a ch ngi nh gi\r\n    }\r\n\r\n    // Thm hm  ly thng tin nh gi\r\n    function getRating(uint _itemIndex) public view returns (uint) {\r\n        return items[_itemIndex]._rating; // Tr v nh gi ca sn phm\r\n    }\r\n}\r\n",
  "sourcePath": "D:\\Workspace\\nodejs\\supplychain_main\\contracts\\ItemManager.sol",
  "compiler": {
    "name": "solc",
    "version": "0.8.18+commit.87f61d96.Emscripten.clang"
  },
  "schemaVersion": "3.4.16",
  "updatedAt": "2024-10-21T08:02:39.517Z",
  "networkType": "ethereum",
  "devdoc": {
    "kind": "dev",
    "methods": {},
    "version": 1
  },
  "userdoc": {
    "kind": "user",
    "methods": {},
    "version": 1
  }
}